:020000040800F2
:100000000005002001010008E71000086F0F00083C
:10001000E51000086D0100084D1300080000000005
:10002000000000000000000000000000EB100008CD
:100030006F01000800000000E9100008ED10000842
:100040001B0100081B0100081B0100081B01000820
:100050001B0100081B0100081B0100081B01000810
:100060001B0100081B0100081B0100081B01000800
:100070001B0100081B0100081B0100081B010008F0
:100080001B0100081B0100081B0100081B010008E0
:100090001B0100081B0100081B0100081B010008D0
:1000A0001B0100081B0100081B0100081B010008C0
:1000B000411100084D1100081B0100081B01000838
:1000C0001B0100081B0100081B0100081B010008A0
:1000D0001B0100081B0100081B0100081B01000890
:1000E0001B0100081B0100081B010008DFF80CD0F1
:1000F00000F02AF8004800478D1300080005002092
:100100000648804706480047FEE7FEE7FEE7FEE7B1
:10011000FEE7FEE7FEE7FEE7FEE7FEE73F11000829
:10012000ED000008D2B201E000F8012B491EFBD21D
:1001300070470022F6E710B513460A4604461946F2
:10014000FFF7F0FF204610BD064C074D06E0E068C3
:1001500040F0010394E8070098471034AC42F6D30E
:10016000FFF7C8FFE413000804140008FEE7704717
:10017000704700002DE9F84FDFF8B891002409F12D
:10018000040A0AF1040B23460F270BF1040EC9E001
:100190000125A5402A40AA427DD1674ED1F804C06E
:1001A000ACEB0608B44532D014DCBCF1030F3AD0F6
:1001B00009DCBCF1000F2AD0BCF1010F1CD0BCF14E
:1001C000020F31D11DE0BCF1110F17D0BCF1120F9D
:1001D0002AD119E0B8F5881F19D006DCB8F5803FA0
:1001E00015D0B8F5801F1FD111E0B8F5001F0ED053
:1001F000B8F5041F18D10AE0CB6815E0CB681B1DC9
:1002000012E0CB6808330FE0CB680C330CE08B684E
:100210002BB1012B4FF0080303D0456104E0042308
:1002200002E0056100E00023FF2A01D8064601E054
:1002300000F104064FEA840501D9A5F12005D6F89E
:10024000008007FA05FC28EA0C0803FA05F548EADD
:100250000508C6F800804D68ED0062D5374DAE69DF
:1002600046F00106AE61AD6924F0030605F0010514
:100270000095334D06EB050CDCF80850A607360F49
:1002800007FA06F825EA0805DFF8B880404503D1EB
:100290004FF0000817E044E0DFF8AC80404502D1A1
:1002A0004FF001080FE0DFF8A480404502D14FF085
:1002B000020808E0DFF89880404502D14FF00308BB
:1002C00001E04FF0040808FA06F848EA0508CCF8FF
:1002D00008804D68D9F80060ED034D4601D51643FE
:1002E00000E096432E604D68DAF80060AD03554695
:1002F00001D5164300E096432E604D68DBF80060A0
:10030000ED025D4601D5164300E096432E604D6830
:10031000DEF80060AD02754601D5164300E0964355
:100320002E60641C0D682A46E5407FF431AFBDE8BD
:10033000F88F00000004014000001110001002407E
:100340000000014000080140000C01400010014085
:1003500000140140C26821EA02030A4043EA024154
:10036000016170470AB1016170470904FBE70000B1
:1003700001488068704700001C0000200248816826
:1003800002781144816070471C000020074810B5B6
:10039000016841F010010160032000F075F80020B1
:1003A00000F006F800F024F8002010BD0020024004
:1003B00070B50D4D04464FF47A712878B1FBF0F01A
:1003C0000A490968B1FBF0F000F0ECFA48B9102CCA
:1003D00007D200222146501E00F036F800206C6043
:1003E00070BD012070BD00001C000020280000200E
:1003F0000C4808B5816941F001018161816901F012
:1004000001010091C16941F08051C161C06900F0F2
:10041000805000900448416821F0E06141F0007193
:10042000416008BD0010024000000140002809DBC7
:1004300000F01F02012191404009800000F1E020FE
:10044000C0F8001170470000F0B40E4B1B680C465A
:10045000C3F30223C3F10705042D00D90425191D98
:10046000072901D2002300E0DB1E012606FA05F170
:10047000491E214099409E40761E16403143F0BCF3
:1004800000F065BF0CED00E0064900F007020868C7
:100490004FF6FF03184040EA0220034A1043086069
:1004A000704700000CED00E00000FA052DE9F04770
:1004B0000F46050061D0434E306800F00700B84297
:1004C00009D2306820F0070038433060306800F00F
:1004D0000700B84251D128683B4C810712D540072C
:1004E00003D5606840F4E06060602878000703D5B9
:1004F000606840F4605060606068A96820F0F000B7
:10050000084360602878C00728D06868012810D0A8
:100510002168022810D0890700292EDA616821F0AD
:10052000030101436160FFF723FF804641F28839F0
:100530000DE021688903EFE78901EDE7FFF718FF78
:10054000A0EB0801494502D90320BDE8F0876068A7
:10055000696800F00C00B0EB810FEFD1306800F05B
:100560000700B8420BD9306820F0070038433060EC
:10057000306800F00700B84201D00120E5E7287894
:10058000400705D56068E96820F4E06008436060D2
:100590002878000706D56068296920F4605040EA91
:1005A000C100606000F038F86168084AC1F30311C7
:1005B000515CC8400649086006480068FFF7F8FE2D
:1005C0000020C2E70020024000100240CC130008C7
:1005D00028000020200000200448054900684968E0
:1005E000044AC1F30221515CC84070472800002032
:1005F00000100240DC1300080448054900684968FF
:10060000044AC1F3C221515CC84070472800002051
:1006100000100240DC13000812A185B00FC98DE85C
:100620000F0014A0144A006804905168134801F0A8
:100630000C03042B10D0082B0ED1C1F38343C90344
:100640001DF803000AD5516804AAC1F34041515C6A
:100650000A4A5043B0FBF1F005B0704708494843DF
:10066000FAE7000002030405060708090A0B0C0D4F
:100670000E0F1010010200000010024000127A005C
:1006800000093D002DE9F84F040070D02078C04DDE
:10069000C00749D06868C0F38100012807D06868A6
:1006A000C0F38100022809D16868C00306D5286814
:1006B000800339D560680028E7D035E06068B0F580
:1006C000803F0BD010B1B0F5A02F11D0286820F4D6
:1006D00080302860286820F4802002E0286840F4F8
:1006E00080302860606890B1FFF742FE06460AE05D
:1006F000286840F480202860F0E700BFFFF738FE4C
:10070000801B642873D828688003F7D50CE0FFF7B6
:100710002FFE064605E000BFFFF72AFE801B642877
:10072000F0D828688003F7D420789A4E80074FF0DD
:1007300001094FF0000839D5686810F00C0F07D098
:100740006868C0F38100022809D16868C00306D434
:100750002868800714D52069012808D110E0206995
:10076000B0B1C6F80090FFF703FE074605E00AE1C6
:10077000FFF7FEFDC01B0228C4D828688007F7D504
:100780002868616920F0F80040EAC10028600DE0A7
:10079000C6F80080FFF7ECFD074604E0FFF7E8FD30
:1007A000C01B022823D828688007F7D420780007C8
:1007B0002CD57948A169D9B1C0F80090FFF7D8FDD0
:1007C000074604E0FFF7D4FDC01B02280FD8686A73
:1007D0008007F7D571484FF4FA510068B0FBF1F08B
:1007E000009000BF0098411E0091FAD20EE080E018
:1007F000C0F80080FFF7BCFD074604E0FFF7B8FD36
:10080000C01B022875D8686A8007F7D42078400793
:1008100060D5E8690027C00008D4E86940F080503E
:10082000E861E869012700F0805000905C480168A9
:10083000C90513D40168834641F480710160FFF754
:1008400097FD824606E000BFFFF792FDA0EB0A008D
:1008500064284ED8DBF80000C005F5D5E068012813
:100860000AD008B1052813D0286A20F001002862B8
:10087000286A20F0040002E0286A40F001002862A3
:10088000E06841F2883B98B1FFF772FD82460BE0C9
:10089000286A40F004002862EEE700BFFFF768FD19
:1008A000A0EB0A0159455AD8286A8007F6D50CE012
:1008B000FFF75EFD824605E0FFF75AFDA0EB0A0157
:1008C00059454CD8286A8007F6D41FB1E86920F052
:1008D0008050E861E06988B36968C1F38101022949
:1008E00044D00228C6F8608004D0FFF741FD0446DA
:1008F00038E034E0FFF73CFD074604E0FFF738FD41
:10090000C01B02282BD828688001F7D4206AB0F5D4
:10091000803F05D16868A16820F400300843686012
:10092000D4E908010843696821F474110843686038
:10093000C6F86090FFF71CFD044606E025E000BF06
:10094000FFF716FD001B022809D828688001F7D59B
:100950001BE000BFFFF70CFD001B022802D903209B
:10096000BDE8F88F28688001F4D40EE00128F7D0A4
:100970006868226A00F48031914204D1616A00F40F
:100980007010884201D00120EAE70020E8E700006B
:100990000010024000004242800442422800002031
:1009A0000070004010B5401EB0F1807F01D30120DF
:1009B00010BD4FF0E02460610F21601700F0C7FC0C
:1009C0000020A06107202061002010BD7047704703
:1009D00070B590F83C20012A26D0012480F83C40D4
:1009E000022280F83D2003685A689D6822F0700654
:1009F0000A6832435A600D4B02689A4208D0B2F13D
:100A0000804F05D00A4B9A4202D00A4B9A4204D139
:100A1000496825F080031943916080F83D4000212A
:100A200080F83C10084670BD022070BD002C0140CB
:100A3000000400400008004010B5040003D094F802
:100A40003D0010B107E0012010BD002084F83C00FB
:100A5000204600F01FF8022084F83D00211D206888
:100A600000F07AFB012084F8460084F83E0084F808
:100A70003F0084F8400084F8410084F8420084F884
:100A8000430084F8440084F8450084F83D000020C9
:100A900010BD000008B501681048B1F1804F14D0B6
:100AA0000F4A914219D1C16941F00201C161C06987
:100AB000002200F00200009011461D20FFF7C4FC48
:100AC000BDE808401D20FFF7B1BCC16941F001013C
:100AD000C161C06900F00100009008BD0010024033
:100AE0000004004090F83D10012901D0012070471A
:100AF000022180F83D100168CA6842F00102CA6014
:100B000000680B49884208D0B0F1804F05D00949F0
:100B1000884202D00849884204D1816801F0070167
:100B2000062903D0016841F00101016000207047EF
:100B3000002C0140000400400008004070B504464D
:100B400090F83C00012817D0012584F83C50022081
:100B500084F83D002068826822F0770222F47F4208
:100B600082600868502830D00DDC20284DD005DC8C
:100B700098B310283BD148E0022070BD302844D003
:100B8000402834D139E0602828D0702806D0B0F54C
:100B9000805F2CD0B0F5005F29D10AE0CB68D1E9A5
:100BA0000121206800F00EFB2068816841F0770188
:100BB00009E0CB68D1E90121206800F003FB20683F
:100BC000816841F48041816011E0CA684968206809
:100BD00000F00AFB5021206807E016E0CA68496867
:100BE000206800F012FB6021206800F0F5FA84F81C
:100BF0003D50002084F83C0070BDCA6849682068F8
:100C000000F0F2FA40212068EFE722680146104622
:100C1000EBE7704770B50446006801694FF00005C6
:100C2000C943890715D4C168C943890711D4E91E8E
:100C3000016101202077206880698007204602D06A
:100C4000FFF7E7FF04E000F098F8204600F096F880
:100C5000257720680169C943490717D4C168C9438A
:100C6000490713D46FF00401016102202077206846
:100C7000806910F4407F204602D0FFF7CAFF04E0ED
:100C800000F07BF8204600F079F8257720680169AC
:100C9000C943090716D4C168C943090712D46FF0C4
:100CA00008010161042020772068C0698007204680
:100CB00002D0FFF7AEFF04E000F05FF8204600F03E
:100CC0005DF8257720680169C943C90617D4C16852
:100CD000C943C90613D46FF01001016108202077C1
:100CE0002068C06910F4407F204602D0FFF791FFD2
:100CF00004E000F042F8204600F040F82577206834
:100D00000169C943C90708D1C168C943C90704D1EA
:100D1000891E0161204600F033F820680169C9434B
:100D2000090609D4C168C943090605D46FF08001DA
:100D300001612046FFF74AFE20680169C943490660
:100D400009D4C168C943490605D46FF04001016167
:100D5000204600F049F820680169C94389060BD490
:100D6000C168C943890607D46FF02001016120469C
:100D7000BDE87040FFF72BBE70BD704770470000A4
:100D800070B5054600680026124CB0F1804F0BD1BB
:100D90002068401C2060B0F5C87F19D34FF4004193
:100DA0000D482660FFF7D6FA0C49286888420FD113
:100DB0006068401C6060B0F57A7F09D36660BDE86A
:100DC000704004491422064B0831064800F076B8FA
:100DD00070BD000000000020001001400004004031
:100DE000A0860100BC000020704770B5040004D04C
:100DF00094F83D00002510B106E0012070BD84F894
:100E00003C50204600F022F8242084F83D00206861
:100E1000C16821F40051C160204600F009FA206841
:100E2000016921F4904101612068416921F02A01A2
:100E300041612068C16841F40051C16025642020EF
:100E400084F83D0084F83E00002070BD30B585B0C8
:100E50000024009401940294039400681449884289
:100E600024D11448816941F480418161816901F490
:100E700080410491816941F00401816180690E4DD6
:100E800000F0040004904FF40070009002200190E4
:100E90000320039069462846FFF76CF92815CDE931
:100EA0000004694628460294FFF764F905B030BD96
:100EB0000038014000100240000801402DE9F843CD
:100EC000044690F83D001F4616460D4620284CD19A
:100ED000C5B1BEB194F83C00012846D0012084F889
:100EE0003C004FF00008C4F84080212084F83D0009
:100EF000FFF73EFAA6848146E684A068B0F5805FDD
:100F000003D004E00120BDE8F883206928B12E4613
:100F10005FF0000584F83C800EE00026FAE78021AF
:100F2000204600F0E1F9A0B9AEB116F8010B216836
:100F30004860E08C401EE084E08C4B464FF000029D
:100F400000970028EBD14FF04001204600F0CCF98B
:100F500030B10320D7E735F8020BC0F30800E6E70D
:100F6000202084F83D000020CDE70220CBE7FEE7FB
:100F700070B586B00024184800940194029403943C
:100F8000816941F010018161816901F010010491D2
:100F9000816941F020018161816901F020010491A2
:100FA000816941F00401816180690C4E00F0040008
:100FB0004FF400450490002229463046FFF7D2F94D
:100FC00001200095CDE901040220039069463046D6
:100FD000FFF7D0F806B070BD0010024000100140CD
:100FE00010B586B00024164800940194029403942E
:100FF00004944FF08041059401604721C0E9011439
:1010000041F28831C0E903148461FFF715FD08B18E
:10101000FFF7AEF84FF48050009069460848FFF79C
:101020008DFD08B1FFF7A4F8049404A904480594C1
:10103000FFF7CEFC002801D0FFF79AF806B010BDEC
:101040002C00002010B586B00024174800940194AD
:101050000294039404941349059401604721C0E964
:10106000011441F28831C0E903148461FFF7E4FC04
:1010700008B1FFF77DF84FF48050009069460A48A8
:10108000FFF75CFD08B1FFF773F8049404A9064864
:101090000594FFF79DFC002801D0FFF769F806B022
:1010A00010BD000000040040740000200C4810B582
:1010B0000A4901604FF4E1314160002181600C2256
:1010C000C160C0E904128161C161FFF78EFE002892
:1010D00003D0BDE81040FFF74BB810BD0038014009
:1010E000BC000020FEE7704770477047FFF746B925
:1010F00030B58FB028216846FFF71BF814210AA8E5
:10110000FFF717F801210804CDE90010002402942C
:1011100002250491CDE907504FF4E010099068468C
:10112000FFF7B0FA0F20CDE90A056802CDE90C40BF
:1011300002210AA80E94FFF7B9F90FB030BD70472D
:101140000148FFF767BD00002C0000200148FFF7B1
:1011500061BD000074000020F0B50268164B174C0A
:10116000174D4FF08047984205D0B84203D0A042B7
:1011700001D0A84203D122F070064A683243984257
:1011800005D0B84203D0A04201D0A84203D122F436
:101190004074CA6822434C6922F0800222430260F4
:1011A0008A68C2620A688262984201D10969016351
:1011B00001214161F0BD0000002C0140000400400D
:1011C0000008004010B5846842EA032224F47F44FA
:1011D0000A432243826010BD826822F070020A43F3
:1011E00042F007018160704710B5036A046A24F079
:1011F00001040462846924F0F00444EA021423F038
:101200000A020A438461026210BD10B5036A23F02A
:10121000100303628369046A23F4704343EA0232D1
:1012200024F0A00343EA01118261016210BD0000B5
:1012300070B5044600680169E26821F44051114329
:1012400001612169A0680843616908432168CA688F
:1012500041F20C639A430243CA6020684169A26963
:1012600021F44071114341611E492068884202D136
:10127000FFF7C2F901E0FFF7AFF900EBC00101EBA6
:101280000012606864218000B2FBF0F3B3FBF1F35D
:101290006FF018067343B2FBF0F5B2FBF0F605EB06
:1012A0008305322303EB0515B5FBF1F5B6FBF1F62B
:1012B00005F0F00505EB0615B2FBF0F6B2FBF0F019
:1012C000B0FBF1F06FF01802504306EB800003EB27
:1012D0000010B0FBF1F0216800F00F002844886096
:1012E00070BD0000003801402DE9F04198461746D6
:1012F0000E460446069D1DE0681C1BD02DB1FFF76D
:1013000037F8A0EB0800A84214D92068C16821F47E
:10131000D071C1602068416921F001014161202044
:1013200084F83D0084F83E00002084F83C0003204F
:10133000BDE8F0812068006836EA000004D0002093
:10134000B842D9D00020F3E70120F9E7FEE709070A
:10135000090E002804DB00F1E02080F8001470473B
:1013600000F00F0000F1E02080F8141D704702E04B
:1013700008C8121F08C1002AFAD170477047002020
:1013800001E001C1121F002AFBD17047FEF7FEFFEA
:10139000FFF7AEFEFFF7ECFDFFF722FEFFF752FE70
:1013A000FFF784FE002211461C20FFF74DF81C2099
:1013B000FFF73CF80348FFF795FB0348FFF792FB64
:1013C000FEE700002C000020740000200000000058
:1013D00000000000010203040607080900000000E5
:1013E0000102030404140008000000202C00000087
:1013F0006E130008301400082C000020D4040000F4
:101400007E130008000000000000000068656C6C9E
:101410006F2077696E646F7773A3A10D0A000000D7
:101420000100000010000000000000000024F40093
:04000005080000ED02
:00000001FF
